:020000040800F2
:100000002814002045010008ED300008FD2D0008EF
:10001000E9300008D50100086D3B00080000000031
:100020000000000000000000000000001132000885
:10003000D901000800000000EF300008133200086A
:100040005F0100085F0100085F0100085F01000810
:100050005F0100085F0100085F0100085F01000800
:100060005F0100085F0100085F0100085F010008F0
:100070005F0100085F0100085F0100085F010008E0
:100080005F0100085F0100085F0100085F010008D0
:100090005F0100085F0100085F0100085F010008C0
:1000A0005F0100085F0100085F0100085F010008B0
:1000B0005F010008D93200085F0100085F010008F5
:1000C0005F0100085F0100085F0100085F01000890
:1000D0005F0100085D3B00085F0100085F01000848
:1000E0005F0100085F0100085F0100085F01000870
:1000F0005F0100085F0100085F0100085F01000860
:100100005F0100085F0100085F0100085F0100084F
:100110005F0100085F0100085F0100085F0100083F
:100120005F0100085F0100085F0100085F0100082F
:10013000DFF80CD000F03CF80048004759410008B7
:10014000281400200648804706480047FEE7FEE7DF
:10015000FEE7FEE7FEE7FEE7FEE7FEE7FEE7FEE777
:10016000813200083101000840EA01039B0703D0F7
:1001700009E008C9121F08C0042AFAD203E011F8E6
:10018000013B00F8013B521EF9D27047D2B201E0A8
:1001900000F8012B491EFBD270470022F6E710B58C
:1001A00013460A4604461946FFF7F0FF204610BDE5
:1001B000064C074D06E0E06840F0010394E80700B4
:1001C00098471034AC42F6D3FFF7B6FFB0450008AD
:1001D000D045000800BFFEE77047704770B5044681
:1001E000002594F82100022803D00420A0630125F3
:1001F000C1E02068006820F00E00216808602068D7
:10020000006820F00100216808605C49206888428D
:1002100052D95A4978392068884201D1012047E0F3
:10022000564964392068884201D1102040E0534982
:1002300050392068884201D1801539E04F493C3956
:100240002068884201D1801432E04C492839206866
:10025000884202D14FF480302AE04849143920689E
:10026000884202D14FF4801022E04449206888423D
:1002700001D140041CE042492068884201D101209C
:1002800016E03F4914312068884201D110200FE068
:100290003B4928312068884201D1801508E038495F
:1002A0003C312068884201D1801401E04FF4803055
:1002B0003349091F086051E0304978392068884285
:1002C00001D1012047E02D4964392068884201D1DD
:1002D000102040E0294950392068884201D180151A
:1002E00039E026493C392068884201D1801432E047
:1002F000224928392068884202D14FF480302AE010
:100300001E4914392068884202D14FF4801022E03F
:100310001A492068884201D140041CE0184920682D
:10032000884201D1012016E0154914312068884225
:1003300001D110200FE0124928312068884201D1F4
:10034000801508E00E493C312068884201D18014B4
:1003500001E04FF48030094980394860012084F879
:10036000210000BF002084F8200000BF606B10B1A6
:100370002046616B8847284670BD0000800002401F
:10038000080402402DE9FC5F05460C4600270020CA
:100390000190E648854211D0E54885420ED0E548F7
:1003A00085420BD0E448854208D0E448854205D018
:1003B000E348854202D0E348854200D103E0BD21F5
:1003C000E1A003F000FC208880B220B120686FF328
:1003D0000F0000B903E0BE21DBA003F0F4FB60686E
:1003E00030B36068012823D06068112820D060688D
:1003F00002281DD0606812281AD0E249606888423D
:1004000016D0E1496068884212D0E04960688842AD
:100410000ED0DF49606888420AD0DE4960688842B1
:1004200006D0DD496068884202D06068032800D1A8
:1004300003E0BF21C4A003F0C6FB6FE1012000FA76
:1004400007F8206800EA0806464575D1B748854296
:1004500011D0B74885420ED0B64885420BD0B64879
:10046000854208D0B548854205D0B548854202D0BE
:10047000B448854200D103E0CD21B3A003F0A3FB33
:10048000C04A6068811A90426AD00EDC032875D099
:1004900006DC002863D0012819D002286FD139E08A
:1004A000112825D01228F9D147E0B1F5881F5BD07B
:1004B00006DCB1F5803F56D0B1F5801F79D150E010
:1004C000B1F5001F4ED0B1F5041F72D14DE0E068C8
:1004D000022805D0E068012802D0E068032800D196
:1004E00003E0D52198A003F06EFBE068019061E085
:1004F000E068022805D0E068012802D0E0680328FF
:1005000000D103E0DC2190A003F05DFBE068001D5A
:1005100001904FE0E068022805D0E068012802D091
:10052000E068032800D103E0E32187A003F04BFB40
:10053000E068083001903DE0D2E0E068022805D094
:10054000E068012802D0E068032800D103E0EA2136
:100550007DA003F038FBE0680C3001902AE000BF7A
:1005600000BF00BF00BF00BF00BFA06828B1A068E7
:10057000012802D0A068022802D105E016E018E0A8
:10058000F72171A003F01FFBA06810B904200190AF
:100590000BE0A068012804D108200190C5F8108064
:1005A00003E008200190C5F8148003E000200190CA
:1005B00000E000BF00BFFF2E01D8284600E0281D44
:1005C0008246FF2E01D8B80002E0A7F108008000A3
:1005D0008346DAF800000F2101FA0BF188430199F4
:1005E00001FA0BF10843CAF80000606800F080507F
:1005F000B0F1805F74D100BF6848806940F00100AD
:10060000664988610846806900F00100009000BFDB
:1006100000BF4FEAB130B90850F82190B807010F78
:100620000F20884029EA00094048854201D1002076
:1006300019E03F48854201D1012014E03D48854240
:1006400001D102200FE03C48854201D103200AE09D
:100650003A48854201D1042005E03948854201D15C
:10066000052000E00620B907090F884040EA090983
:100670004B48B90840F82190606800F48030B0F52C
:10068000803F05D14748006830434649086004E090
:1006900044480068B04343490860606800F4003093
:1006A000B0F5003F07D13F48001D006830433D4989
:1006B000091D086006E03B48001D0068B043394949
:1006C000091D0860606800F48010B0F5801F08D133
:1006D000344808300068304332490831086007E088
:1006E0001BE0304808300068B0432E4908310860EC
:1006F000606800F40010B0F5001F07D129480C30E5
:100700000068304327490C31086006E025480C306A
:100710000068B04323490C3108607F1C2068F84012
:1007200000287FF48BAEBDE8FC9F0000000801406C
:10073000000C01400010014000140140001801406D
:10074000001C0140002001402E2E2F447269766566
:1007500072732F53544D3332463178785F48414C91
:100760005F4472697665722F5372632F73746D33B1
:1007700032663178785F68616C5F6770696F2E638D
:1007800000000000000011100000211000003110D6
:100790000000121000002210000032100010024071
:1007A000080001400004014070B506460C4615469D
:1007B000A0B218B1200C000400B904E04FF4EA71B3
:1007C00008A003F000FA0DB1012D00D104E040F2C1
:1007D000D51104A003F0F7F90DB1346101E0200454
:1007E000306170BD2E2E2F447269766572732F535F
:1007F000544D3332463178785F48414C5F447269DA
:100800007665722F5372632F73746D33326631784D
:10081000785F68616C5F6770696F2E63000000002D
:1008200001480068704700003000002070B50446A1
:100830000CB9012070BD9B492068884203D09A49B9
:100840002068884200D104E040F2CD1197A003F067
:10085000BAF9606820B1A3496068884200D804E012
:100860004FF4E77191A003F0AEF9A06818B1A06849
:10087000B0F5804F00D104E040F2CF118BA003F01F
:10088000A2F9E0686FF3090000B904E04FF4E871E1
:1008900086A003F098F92069B0F5804F03D0206955
:1008A000B0F5404F00D104E040F2D1117FA003F039
:1008B0008AF9606910B16069012800D104E04FF441
:1008C000E9717AA003F07FF9A06920F0FE0000B979
:1008D00004E040F2D31175A003F075F9E06910B19E
:1008E000E069402800D104E04FF4EA716FA003F002
:1008F0006AF9206A10B1206A802800D104E040F231
:10090000D5116AA003F05FF994F83D0028B90020E2
:1009100084F83C00204600F0EFF8242084F83D00E5
:100920002068006820F001002168086000F0E8FB02
:1009300005466D496068884206D86C48854201D2F8
:10094000012007E0002005E06948854201D201202E
:1009500000E00020012800D16CE76648B5FBF0F606
:100960002068406820F03F003043216848605E49BD
:100970006068884201D8701C07E04FF4967070439D
:100980004FF47A71B0FBF1F0401C2168096A21F044
:100990003F0108432168086253496068884214D8BF
:1009A000681E61684900B0FBF1F0401CC0F30B0009
:1009B000042801D204203DE0681E61684900B0FBB4
:1009C000F1F0401CC0F30B0034E0A06838B9681E99
:1009D000616801EB4101B0FBF1F0401C0AE0681EC8
:1009E000616801EBC10202EB0111B0FBF1F0401CA8
:1009F00040F48040C0F30B0008B901201AE0A06861
:100A000048B9681E616801EB4101B0FBF1F0401C80
:100A1000C0F30B000CE0681E616801EBC10202EB41
:100A20000111B0FBF1F0401CC0F30B0040F480401A
:100A300040F400402168C9694CF6FF7291430843B5
:100A40002168C861D4E9070108432168096821F0D9
:100A5000C001084321680860D4E9031008432168F5
:100A6000896848F2FF329143084321688860D4E9DD
:100A7000050108432168C96821F0FF010843216886
:100A8000C8602068006840F001002168086000200C
:100A90002064202084F83D000020206384F83E007C
:100AA00000BFC7E600540040005800402E2E2F44DF
:100AB0007269766572732F53544D333246317878AC
:100AC0005F48414C5F4472697665722F5372632FA1
:100AD00073746D3332663178785F68616C5F693248
:100AE000632E6300801A0600A086010080841E0029
:100AF00000093D0040420F0010B586B004460020BA
:100B000002900390049005901A49206888422FD1E2
:100B100000BF1948806940F00800174988610846FD
:100B2000806900F00800019000BF00BF4FF44070E2
:100B30000290122003900320059002A90F48FFF7AE
:100B400021FC00BF0E49486840F0E06040F0020020
:100B5000486000BF00BF0848C06940F40010064963
:100B6000C8610846C06900F40010019000BF00BFD2
:100B700006B010BD0054004000100240000C0140BF
:100B8000000001400348006803490978084401490E
:100B900008607047300000203800002010B5084879
:100BA000006840F0100006490860032000F0FAF8E1
:100BB000002000F007F800F02BF8002010BD000026
:100BC0000020024070B504460E4800784FF47A7158
:100BD000B1FBF0F00C490968B1FBF0F5284601F0D3
:100BE00081F808B1012070BD102C07D200222146E7
:100BF000501E00F06DF80548046001E00120F2E7A6
:100C00000020F0E7380000203C00002034000020E5
:100C100008B500BF1148806940F001000F498861A4
:100C20000846806900F00100009000BF00BF00BFCF
:100C30000846C06940F08050C8610846C06900F0AD
:100C40008050009000BF00BF00BF0549486820F0F9
:100C5000E06040F00070486000BF08BD0010024036
:100C60000000014010B50446002C00DB03E0BE216B
:100C700008A002F0A8FF2046002809DB00F01F02B0
:100C8000012191404209920002F1E022C2F80011D4
:100C900000BF10BD2E2E2F447269766572732F53DC
:100CA000544D3332463178785F48414C5F44726925
:100CB0007665722F5372632F73746D333266317899
:100CC000785F68616C5F636F727465782E63000093
:100CD0002DE9F05F80460C4615460027102D00D206
:100CE00003E0AA2120A002F06EFF102C00D203E046
:100CF000AB211DA002F067FF02F03AFF074639461C
:100D000022462B4601F00700C0F1070ABAF1040F92
:100D100002D94FF0040A01E0C0F1070AD14600F100
:100D2000040ABAF1070F02D24FF0000A01E0A0F165
:100D3000030AD4464FF0010A0AFA09FAAAF1010A95
:100D40000AEA020A0AFA0CFA4FF0010B0BFA0CFB42
:100D5000ABF1010B0BEA030B4AEA0B0631464046A6
:100D600002F00EFFBDE8F09F2E2E2F4472697665CB
:100D700072732F53544D3332463178785F48414C6B
:100D80005F4472697665722F5372632F73746D338B
:100D900032663178785F68616C5F636F7274657812
:100DA0002E63000010B50446072C07D0062C05D092
:100DB000052C03D0042C01D0032C00D103E0922198
:100DC00009A002F000FF00BF04F00701154A1068F7
:100DD0004FF6FF021040144A024342EA0120114A32
:100DE000106000BF10BD00002E2E2F447269766582
:100DF00072732F53544D3332463178785F48414CEB
:100E00005F4472697665722F5372632F73746D330A
:100E100032663178785F68616C5F636F7274657891
:100E20002E6300000CED00E00000FA0570B50446EA
:100E30000D460CB9012070BD207800F0010070B99A
:100E4000207800F00200022809D0207800F0040089
:100E5000042804D0207800F00800082800D104E01D
:100E60004FF44E7190A002F0AEFE1DB1012D01D0E5
:100E7000022D00D104E040F239318BA002F0A3FE34
:100E80009748006800F00700A8420ED29448006816
:100E900020F007002843924908600846006800F0E7
:100EA0000700A84201D00120C5E7207800F0020029
:100EB00002283DD1207800F00400042805D189489B
:100EC000406840F4E06087494860207800F00800FE
:100ED000082805D18348406840F460508149486043
:100EE000A068B8B1A068802814D0A068902811D05C
:100EF000A068A0280ED0A068B0280BD0A068C02899
:100F000008D0A068D02805D0A068E02802D0A0684A
:100F1000F02800D104E040F25F3163A002F053FEFC
:100F20007048406820F0F000A16808436D494860AF
:100F3000207800F00100002845D0606828B1606882
:100F4000012802D06068022800D104E040F2663136
:100F500055A002F038FE6068012806D1614800689B
:100F600000F4003090B9012065E76068022806D1DE
:100F70005C48006800F0007040B901205BE7594808
:100F8000006800F0020008B9012054E755484068A5
:100F900020F003006168084352494860FFF740FCB5
:100FA000064608E0FFF73CFC801B41F2883188428E
:100FB00001D903203FE74B48406800F00C0061680E
:100FC000B0EB810FEED14648006800F00700A84260
:100FD0000ED94348006820F00700284340490860C4
:100FE0000846006800F00700A84201D0012022E76F
:100FF000207800F0040004281FD1E06878B1E06890
:10100000B0F5806F0BD0E068B0F5A06F07D0E06856
:10101000B0F5C06F03D0E068B0F5E06F00D104E038
:101020004FF4697120A002F0CEFD2E48406820F4F4
:10103000E060E16808432B494860207800F0080030
:10104000082820D1206978B12069B0F5806F0BD0D5
:101050002069B0F5A06F07D02069B0F5C06F03D04C
:101060002069B0F5E06F00D104E040F2AB310EA092
:1010700002F0A9FD1B48406820F46050216940EA55
:10108000C1001849486000F05BF816494968C1F38F
:101090000311154A515CC84014490860144800689F
:1010A000FFF790FD0020C6E62E2E2F44726976656C
:1010B00072732F53544D3332463178785F48414C28
:1010C0005F4472697665722F5372632F73746D3348
:1010D00032663178785F68616C5F7263632E63009B
:1010E0000020024000100240984500083C0000200B
:1010F0003400002001480068704700003C000020D8
:1011000000B5FFF7F7FF04494968C1F30221034A1C
:10111000515CC84000BD000000100240A845000816
:1011200000B5FFF7E7FF04494968C1F3C221034A4C
:10113000515CC84000BD000000100240A8450008F6
:10114000F0B585B00FF26C0C9CE8E01001A8A0E8A7
:10115000E0101CA52D68009500210022002300242A
:101160000020194D696801F00C05F5B1042D02D07D
:10117000082D19D101E0154819E001ADC1F38346EE
:10118000AC5D01F4803555B10F4D6D68C5F3404538
:101190001DF805200D4D6543B5FBF2F302E00C4D43
:1011A00004FB05F3184602E000BF0A4800BF00BF79
:1011B00005B0F0BD02030405060708090A0B0C0D73
:1011C0000E0F10100102000000100240001BB700BB
:1011D00000093D0000127A00F8B504460CB9012060
:1011E000F8BD206890B1207800F0010070B9207837
:1011F00000F00200022809D0207800F0080008283A
:1012000004D0207800F00400042800D104E040F26B
:101210006711FAA002F0D7FC207800F00100002846
:1012200070D0606838B16068B0F5803F03D0606806
:10123000B0F5A02F00D104E040F26D11EFA002F054
:10124000C2FCFC48406800F00C0004280CD0F948AF
:10125000406800F00C00082811D1F648406800F4FE
:101260008030B0F5803F0AD1F248006800F40030C9
:10127000002860D0606800285DD10120B0E700BF81
:101280006068B0F5803F06D1EA48006840F48030DD
:10129000E849086028E0606858B9E648006820F42A
:1012A0008030E44908600846006820F48020086027
:1012B0001AE06068B0F5A02F0BD1DE48006840F45A
:1012C0008020DC4908600846006840F480300860EF
:1012D0000AE0D848006820F48030D6490860084603
:1012E000006820F48020086000BF606890B1FFF7BC
:1012F00097FA054607E0FFF793FA401B642802D9E6
:1013000003206DE717E0CB48006800F400300028A8
:10131000F1D010E0FFF784FA054606E0FFF780FA07
:10132000401B642801D903205AE7C248006800F432
:1013300000300028F2D1207800F0020002286BD1A2
:10134000206910B12069012800D104E040F2A11108
:10135000AAA002F038FC60691F2800D804E04FF40E
:10136000D171A6A002F02FFCB248406800F00C003A
:1013700050B1B048406800F00C00082818D1AD48C2
:10138000406800F4803098B9AA48006800F0020074
:1013900020B12069012801D0012021E7A54800687B
:1013A00020F0F800616940EAC100A249086033E01A
:1013B0002069E8B10120A0490860FFF731FA05462D
:1013C00006E0FFF72DFA401B022801D9032007E7AA
:1013D0009848006800F002000028F2D095480068A4
:1013E00020F0F800616940EAC1009249086013E00A
:1013F000002091490860FFF713FA054606E0FFF761
:101400000FFA401B022801D90320E9E68948006849
:1014100000F002000028F2D1207800F0080008282F
:1014200038D1A06910B1A069012800D104E04FF4BF
:10143000F17172A002F0C7FBA069B8B101207F4929
:101440000860FFF7EDF9054606E0FFF7E9F9401BF4
:10145000022801D90320C3E67648406A00F0020062
:101460000028F2D0012001F043FE13E00020734970
:101470000860FFF7D5F9054606E0FFF7D1F9401BF4
:10148000022801D90320ABE66A48406A00F0020056
:101490000028F2D1207800F00400042878D1002739
:1014A000E06828B1E068012802D0E068052800D192
:1014B00004E040F2112151A002F085FB5D48C069B3
:1014C00000F0805070B900BF5A48C06940F08050A9
:1014D0005849C8610846C06900F08050009000BFBC
:1014E00000BF01275648006800F48070B0B9544826
:1014F000006840F4807052490860FFF791F9054692
:1015000006E0FFF78DF9401B642801D9032067E648
:101510004B48006800F480700028F2D000BFE068FB
:10152000012806D14348006A40F0010041490862A1
:1015300027E0E06858B93F48006A20F001003D49C3
:1015400008620846006A20F00400086219E0E068BA
:1015500005280BD13748006A40F00400354908627D
:101560000846006A40F0010008620AE03148006A5B
:1015700020F001002F4908620846006A20F00400AC
:10158000086200BFE068A0B1FFF74AF9054609E02C
:101590002BE0FFF745F9401B41F28831884201D921
:1015A00003201DE62348006A00F002000028F0D066
:1015B00012E0FFF735F9054608E0FFF731F9401B67
:1015C00041F28831884201D9032009E61948006AAE
:1015D00000F002000028F0D1012F05D11548C069A4
:1015E00020F080501349C86100BFE06928B1E0696C
:1015F000012802D0E069022824D129E02E2E2F44B0
:101600007269766572732F53544D33324631787850
:101610005F48414C5F4472697665722F5372632F45
:1016200073746D3332663178785F68616C5F7263B2
:10163000632E6300001002400000424280044242D8
:101640000070004040F2AF21AFF2500002F0BBFA50
:10165000E069002875D06748406800F00C00082851
:1016600070D0E06902286ED1206A18B1206AB0F506
:10167000803F00D105E04FF42E71AFF2800002F000
:10168000A2FA606AB8B3606AB0F5802F33D0606A9E
:10169000B0F5002F2FD0606AB0F5402F2BD0606AD4
:1016A000B0F5801F27D0606AB0F5A01F23D0606A14
:1016B000B0F5C01F1FD0606AB0F5E01F1BD0606A94
:1016C000B0F5001F17D0606AB0F5101F13D0606A24
:1016D000B0F5201F0FD0606AB0F5301F0BD0606AE4
:1016E000B0F5401F07D0606AB0F5501F03D0606AA4
:1016F000B0F5601F00D105E040F2B921AFF204104F
:1017000002F061FA00203C490866FFF789F80546B7
:1017100006E0FFF785F8401B022801D903205FE5AA
:101720003448006800F000700028F2D1206AB0F55B
:10173000803F17D1A06818B1A068B0F5003F03D171
:1017400008E055E042E02CE040F2CF21AFF2541027
:1017500002F039FA2748406820F40030A1680843B5
:1017600024494860D4E9080108432249496821F422
:10177000741108431F49486001201F490866FFF79C
:101780004FF8054606E0FFF74BF8401B022801D949
:10179000032025E51748006800F000700028F2D00B
:1017A00026E0002014490866FFF73AF8054606E0EF
:1017B000FFF736F8401B022801D9032010E50D4839
:1017C000006800F000700028F2D111E0E069012803
:1017D00000D105E50748466806F48031206A814259
:1017E00004D106F47011606A814201D00120F7E44F
:1017F0000020F5E4001002400000424210B504460B
:101800000CB9012010BD67492068884207D066499D
:101810002068884203D065492068884200D104E0EE
:101820004FF4AC7162A002F0CEF9606818B1606844
:10183000B0F5827F00D104E040F259115CA002F0C3
:10184000C2F9A06838B1A068B0F5806F03D0A06875
:10185000B0F5004F00D104E04FF4AD7154A002F098
:10186000B2F9E068B0F5006F01D0E06800B904E0BB
:1018700040F25B114EA002F0A6F9A069B0F5007F1E
:1018800005D0A06918B1A069B0F5802F00D104E09F
:101890004FF4AE7146A002F096F9E069A0B1E0699C
:1018A000082811D0E06910280ED0E06918280BD064
:1018B000E069202808D0E069282805D0E0693028B0
:1018C00002D0E069382800D104E040F25D1138A070
:1018D00002F079F9206A10B1206A802800D104E072
:1018E0004FF4AF7132A002F06EF9606A00B904E003
:1018F00040F261112EA002F066F9606AA8B9206971
:1019000010B12069022800D104E04FF4B27128A080
:1019100002F059F9606910B16069012800D104E052
:1019200040F2651122A002F04EF90021A16294F864
:10193000510028B9002084F85000204600F054F8E7
:10194000022084F851002068006820F040002168DF
:101950000860D4E901010843E168084321690843AC
:1019600061690843218B01F400710843E169084370
:10197000216A0843A16A0843216808600421A0691C
:1019800001EA1040216848602068C06920F40060C6
:101990002168C86100206065012084F851000020A2
:1019A00030E700000030014000380040003C0040BB
:1019B0002E2E2F447269766572732F53544D333235
:1019C000463178785F48414C5F4472697665722F82
:1019D0005372632F73746D3332663178785F686148
:1019E0006C5F7370692E630010B586B004460020EA
:1019F00002900390049005901A49206888422FD1E4
:101A000000BF1948C06940F480401749C8610846C2
:101A1000C06900F48040019000BF00BF00BF0846CD
:101A2000806940F0080088610846806900F008007D
:101A3000019000BF00BF4FF42040029002200390AD
:101A40000320059002A90948FEF79CFC4FF4804052
:101A5000029000200390049002A90448FEF792FC33
:101A600006B010BD0038004000100240000C0140DC
:101A70002DE9FF5F0446884691461D460E9E0120D3
:101A8000029000200190A06800B904E040F2824179
:101A900086A002F098F800BF94F85000012803D106
:101AA000022004B0BDE8F09F012084F8500000BF80
:101AB000FEF7B6FE074694F851B060680390AA4658
:101AC000BBF1010F0BD00398B0F5827F04D1A06861
:101AD00010B9BBF1040F02D002200190DBE0B8F195
:101AE000000F03D0B9F1000F00D015B9012001900B
:101AF000D1E094F85100042802D0052084F8510068
:101B000000206065C4F83890E587A587C4F8308068
:101B1000E586A586206460642068006800F04000C7
:101B2000402805D02068006840F040002168086027
:101B3000E068B0F5006F4AD1606810B1BAF1010FEA
:101B400009D1206B00882168C860206B801C20634D
:101B5000E08E401EE08633E02068806800F00200DE
:101B6000022810D1E08E70B1029801280BD1206BB1
:101B700000882168C860206B801C2063E08E401EB6
:101B8000E086002002902068806800F0010068B1C3
:101B9000E08F58B12068C068A16B0880A06B801CE2
:101BA000A063E08F401EE08701200290FEF738FE20
:101BB000C01BB04204D3701C10B1032001906AE036
:101BC000E08E0028C8D1E08F0028C5D14AE06068C7
:101BD00010B1BAF1010F09D1206B007821680873A8
:101BE000206B401C2063E08E401EE08634E02068BD
:101BF000806800F00200022810D1E08E70B10298D7
:101C000001280BD1206B007821680873206B401CE1
:101C10002063E08E401EE0860020029020688068ED
:101C200000F0010068B1E08F58B12068C068A16B76
:101C30000870A06B401CA063E08F401EE08701206D
:101C40000290FEF7EDFDC01BB04201D3701C00B93D
:101C500016B9032001901EE0E08E0028C7D1E08F66
:101C60000028C4D13A463146204601F069FA20B135
:101C700001200190202060650DE0A06850B900BFF0
:101C8000002000902068C068009020688068009064
:101C900000BF00BF00BF012084F8510000BF00203A
:101CA00084F8500000BF0198FBE600002E2E2F4460
:101CB0007269766572732F53544D3332463178789A
:101CC0005F48414C5F4472697665722F5372632F8F
:101CD00073746D3332663178785F68616C5F7370EE
:101CE000692E630070B504462546681EB0F1807FFA
:101CF00001D301200FE0681E4FF0E02148610F2161
:101D00004FF0FF3001F03CFF00204FF0E0218861F0
:101D100007200861002070BD704770472DE9F04131
:101D200004460D463B49206888421BD03A4920684A
:101D3000884217D02068B0F1804F13D0374920680F
:101D400088420FD03649206888420BD03549206838
:101D5000884207D034492068884203D0334920683C
:101D6000884200D104E040F2646131A001F02BFF11
:101D70002868A0B12868102811D0286820280ED023
:101D8000286830280BD02868402808D028685028B8
:101D900005D02868602802D02868702800D104E0A7
:101DA00040F2656122A001F00EFF6868802801D032
:101DB000686800B904E040F266611DA001F003FF0D
:101DC00000BF94F83C00012802D10220BDE8F08158
:101DD000012084F83C0000BF022084F83D00206808
:101DE00046682068876826F070062868064327F052
:101DF0008007686807432068466020688760012084
:101E000084F83D0000BF002084F83C0000BF00BF04
:101E1000DCE70000002C01400034014000040040D9
:101E200000080040000C004000100040001400407A
:101E30002E2E2F447269766572732F53544D3332B0
:101E4000463178785F48414C5F4472697665722FFD
:101E50005372632F73746D3332663178785F6861C3
:101E60006C5F74696D5F65782E63000010B5044681
:101E70000CB9012010BD3549206888421BD0344977
:101E80002068884217D02068B0F1804F13D03149C4
:101E9000206888420FD03049206888420BD02F49F3
:101EA0002068884207D02E492068884203D02D49F7
:101EB0002068884200D104E04FF489712AA001F023
:101EC00082FEA06858B1A068102808D0A068202819
:101ED00005D0A068402802D0A068602800D104E0A6
:101EE00040F2131120A001F06EFE206938B1206984
:101EF000B0F5807F03D02069B0F5007F00D104E009
:101F00004FF48A7118A001F05EFEA06910B1A069BB
:101F1000802800D104E040F2151113A001F053FE17
:101F200094F83D0028B9002084F83C00204600F0D9
:101F300037F8022084F83D00211D206801F0D4F913
:101F4000012084F83D00002094E70000002C0140AF
:101F5000003401400004004000080040000C004034
:101F600000100040001400402E2E2F447269766548
:101F700072732F53544D3332463178785F48414C59
:101F80005F4472697665722F5372632F73746D3379
:101F900032663178785F68616C5F74696D2E6300BA
:101FA00038B504460D492068884215D100BF0C4859
:101FB000C06940F002000A49C8610846C06900F0E3
:101FC0000200009000BF00BF002211461D20FEF756
:101FD0007FFE1D20FEF746FE38BD000000040040D5
:101FE000001002402DE9F04104460D4600BF94F870
:101FF0003C00012802D10220BDE8F081012084F8D4
:102000003C0000BF022084F83D002868B0F5805FE6
:102010001AD02868B0F5005F16D02868A0B12868EB
:10202000102811D0286820280ED0286830280BD01E
:102030002868402808D02868502805D028686028DB
:1020400002D02868702800D104E041F28A11FCA077
:1020500001F0B9FD2068866826F0770626F47F46F1
:1020600020688660286850287ED00CDC20287CD030
:1020700004DC00287AD0102879D1C5E1302877D047
:102080004028F9D17AE1602873D070282DD0B0F5BE
:10209000805F03D0B0F5005FEED189E0F64920689B
:1020A00088421BD0F5492068884217D02068B0F1DB
:1020B000804F13D0F249206888420FD0F149206840
:1020C00088420BD0F0492068884207D0EF49206849
:1020D000884203D0EE492068884200D104E041F2F2
:1020E0009611D7A001F06FFDE0E1E3492068884236
:1020F00013D0E249206888420FD02068B0F1804FA9
:102100000BD0DF492068884207D0DE49206888422A
:1021100003D0DD492068884200D104E041F29D11DE
:10212000C7A001F050FDA86858B1A868B0F5805F5D
:1021300007D0A868B0F5005F03D0A868B0F5405F8D
:1021400000D104E04FF48D51BDA001F03CFD686862
:10215000B0F5004F10D0686870B1686860B1686809
:10216000022809D0686805E07EE04EE14BE19CE181
:102170004CE1BEE00A2800D104E041F2A111B0A078
:1021800001F021FDE8680F2800D804E041F2A21117
:10219000ABA001F018FDD5E902136A68206801F0D0
:1021A000F1F82068866846F07706206886607DE151
:1021B000B1492068884213D0B049206888420FD0C6
:1021C0002068B0F1804F0BD0AD492068884207D01D
:1021D000AC492068884203D0AB492068884200D1CE
:1021E00004E041F2B51196A001F0EDFCA86858B1E9
:1021F000A868B0F5805F07D0A868B0F5005F03D08D
:10220000A868B0F5405F00D104E041F2B8118CA09D
:1022100001F0D9FC6868B0F5004F09D0686838B1A2
:10222000686828B16868022802D068680A2800D166
:1022300004E041F2B91182A001F0C5FCE8680F2862
:1022400000D804E041F2BA117DA001F0BCFCD5E950
:1022500002136A68206801F095F82068806840F4ED
:1022600080402168886021E183492068884213D03A
:102270008249206888420FD02068B0F1804F0BD08F
:102280007F492068884207D07E492068884203D071
:102290007D492068884200D104E041F2C91168A05C
:1022A00001F091FC6868B0F5004F09D0686838B15A
:1022B000686828B16868022802D068680A2800D1D6
:1022C00004E041F2CC115EA001F07DFCE8680F282B
:1022D00000D804E041F2CD1159A001F074FCEA6885
:1022E0006968206801F03CFA5021206801F055F837
:1022F000DCE061492068884213D060492068884248
:102300000FD02068B0F1804F0BD05D492068884223
:1023100007D05C492068884203D05B492068884226
:1023200000D104E041F2D91145A001F04CFC6868ED
:10233000B0F5004F09D0686838B1686828B168689E
:10234000022802D068680A2800D104E041F2DC11BA
:102350003BA001F038FCE8680F2800D804E041F207
:10236000DD1137A001F02FFCEA686968206801F0F0
:102370000AFA6021206801F010F897E03E492068D1
:10238000884213D03D49206888420FD02068B0F1C0
:10239000804F0BD03A492068884207D039492068DD
:1023A000884203D038492068884200D104E041F2D5
:1023B000E91123A001F007FC6868B0F5004F09D0CF
:1023C000686838B1686828B16868022802D068680F
:1023D0000A2800D104E041F2EC1119A001F0F3FB4E
:1023E000E8680F2800D804E041F2ED1114A001F0D4
:1023F000EAFBEA686968206801F0B2F940212068C8
:1024000000F0CBFF52E000BF00BF00BF1A492068B8
:10241000884213D01949206888420FD02068B0F153
:10242000804F0BD016492068884207D01549206894
:10243000884203D01449206888422BD130E0000044
:102440002E2E2F447269766572732F53544D33329A
:10245000463178785F48414C5F4472697665722FE7
:102460005372632F73746D3332663178785F6861AD
:102470006C5F74696D2E6300002C014000340140D4
:102480000004004000080040000C00400010004024
:102490000014004041F2FC11AFF25C0001F093FB2C
:1024A0002968206800F079FF00E000BF00BF01202C
:1024B00084F83D0000BF002084F83C0000BF00BF4E
:1024C0009AE5704710B5044620680069C0F34000E3
:1024D000D8B12068C068C0F34000B0B16FF002000E
:1024E00021680861012020772068806900F00300DE
:1024F00018B12046FFF7E5FF05E0204600F0DAF8C6
:10250000204600F0CAFA0020207720680069C0F356
:102510008000D8B12068C068C0F38000B0B16FF00F
:10252000040021680861022020772068806900F497
:10253000407018B12046FFF7C4FF05E0204600F0C8
:10254000B9F8204600F0A9FA002020772068006939
:10255000C0F3C000D8B12068C068C0F3C000B0B1FB
:102560006FF0080021680861042020772068C069A6
:1025700000F0030018B12046FFF7A3FF05E0204656
:1025800000F098F8204600F088FA002020772068B4
:102590000069C0F30010D8B12068C068C0F3001013
:1025A000B0B16FF010002168086108202077206822
:1025B000C06900F4407018B12046FFF782FF05E0C3
:1025C000204600F077F8204600F067FA00202077D8
:1025D0002068006900F0010058B12068C06800F070
:1025E000010030B16FF0010021680861204600F061
:1025F00055FA20680069C0F3C01058B12068C0685F
:10260000C0F3C01030B16FF080002168086120462F
:10261000FFF782FB20680069C0F3801058B1206882
:10262000C068C0F3801030B16FF0400021680861CD
:10263000204600F034FA20680069C0F3401058B119
:102640002068C068C0F3401030B16FF020002168EE
:1026500008612046FFF761FB10BD000010B586B091
:102660000446002002900390049005900E492068D3
:10267000884216D100BF0D48806940F004000B4924
:1026800088610846806900F00400019000BF00BF27
:102690004020029002200390059002A90448FDF713
:1026A00071FE06B010BD00000004004000100240A2
:1026B000000801407047000070B504460D461646FC
:1026C0003EB1042E05D0082E03D00C2E01D03C2E96
:1026D00000D104E040F6EB518FA001F074FA2868B5
:1026E000602802D02868702800D104E040F6EC5140
:1026F00089A001F068FAA86810B1A868022800D182
:1027000004E040F6ED5184A001F05DFA286910B1B3
:102710002869042800D104E040F6EE517EA001F0C3
:1027200052FA00BF94F83C00012801D1022070BD8C
:10273000012084F83C0000BF022084F83D0036B13F
:10274000042E39D0082E6DD00C2E7DD1A1E0804909
:102750002068884213D07F49206888420FD02068C3
:10276000B0F1804F0BD07C492068884207D07B496C
:102770002068884203D07A492068884200D104E06A
:1027800040F6FA5164A001F01EFA2946206800F0D4
:102790000DFE2068806940F008002168886120688B
:1027A000806920F0040021688861206880692969B7
:1027B000084321688861A3E065492068884213D0F6
:1027C0006449206888420FD02068B0F1804F0BD058
:1027D00061492068884207D060492068884203D058
:1027E0005F492068884200D104E040F60B614AA0AE
:1027F00001F0E9F92946206800F056FE206880695A
:1028000040F40060216888612068806920F480605D
:102810002168886120688069296940EA012021686F
:1028200088616DE04A492068884215D0494920688E
:10283000884211D02068B0F1804F0DD04649206801
:10284000884209D0454900E059E02068884203D019
:1028500043492068884200D104E040F61C612EA064
:1028600001F0B1F92946206800F0A0FE2068C06997
:1028700040F008002168C8612068C06920F00400A9
:102880002168C8612068C069296908432168C86156
:1028900036E02F492068884213D02E4920688842AC
:1028A0000FD02068B0F1804F0BD02B4920688842B0
:1028B00007D02A492068884203D0294920688842E5
:1028C00000D104E040F62D6113A001F07CF9294607
:1028D000206800F0EDFE2068C06940F400602168C7
:1028E000C8612068C06920F480602168C8612068E0
:1028F000C069296940EA01202168C86100E000BF81
:1029000000BF012084F83D0000BF002084F83C0097
:1029100000BF00BF0BE700002E2E2F4472697665C2
:1029200072732F53544D3332463178785F48414C9F
:102930005F4472697665722F5372632F73746D33BF
:1029400032663178785F68616C5F74696D2E630000
:10295000002C014000340140000400400008004009
:10296000000C004010B504460CB9012010BD3549DB
:10297000206888421BD034492068884217D02068DC
:10298000B0F1804F13D03149206888420FD03049D0
:10299000206888420BD02F492068884207D02E49F2
:1029A0002068884203D02D492068884200D104E085
:1029B00040F29B412AA001F006F9A06858B1A06836
:1029C000102808D0A068202805D0A068402802D090
:1029D000A068602800D104E040F29C4120A001F0F2
:1029E000F2F8206938B12069B0F5807F03D0206902
:1029F000B0F5007F00D104E040F29D4118A001F045
:102A0000E2F8A06910B1A069802800D104E040F28A
:102A10009E4113A001F0D7F894F83D0028B900209A
:102A200084F83C00204600F037F8022084F83D008E
:102A3000211D206800F058FC012084F83D00002092
:102A400094E70000002C01400034014000040040E5
:102A500000080040000C004000100040001400403E
:102A60002E2E2F447269766572732F53544D333274
:102A7000463178785F48414C5F4472697665722FC1
:102A80005372632F73746D3332663178785F686187
:102A90006C5F74696D2E63007047704770477047B4
:102AA000704700002DE9F04704462068056820685B
:102AB000C668206847694FF00008C14605F00F0856
:102AC000B8F1000F0AD105F0200038B106F020005F
:102AD00020B1204600F095FEBDE8F087B8F1000F68
:102AE0006DD007F0010018B906F49070002866D088
:102AF00005F0010030B106F4807018B1E06B40F0D1
:102B00000100E06305F0040030B107F0010018B1E6
:102B1000E06B40F00200E06305F0020030B107F026
:102B2000010018B1E06B40F00400E06305F008001C
:102B300030B107F0010018B1E06B40F00800E0632D
:102B4000E06B68B305F0200028B106F0200010B15A
:102B5000204600F056FE20684069C0F38019E06B03
:102B600000F0080010B9B9F1000F22D0204600F0A3
:102B700028FE2068406900F04000B0B1206840693C
:102B800020F0400021684861606B50B11748616BCC
:102B90004863606BFDF722FB10B1606B416B8847A7
:102BA0000CE02046FFF77CFF08E02046FFF778FFA7
:102BB00004E02046FFF774FF0020E0638CE705F097
:102BC000800030B106F0800018B1204600F092FF7E
:102BD00082E705F0400030B106F0400018B1204611
:102BE00000F0FFFD78E700BF76E70000AF37000890
:102BF00010B504460CB9012010BDA069002826D0EC
:102C00003E492068884207D03D492068884203D069
:102C10003C492068884200D104E04FF4A3713AA0F7
:102C200000F0D1FFA06958B1A069B0F5807F07D04E
:102C3000A069B0F5007F03D0A069B0F5407F00D156
:102C40001FE040F2471130A000F0BDFF19E02B4912
:102C5000206888420FD02A49206888420BD0294931
:102C60002068884207D037492068884203D0364917
:102C70002068884200D104E040F24B1122A000F00D
:102C8000A2FFA06818B1A068B0F5805F00D104E091
:102C900040F24D111CA000F096FF94F8390028B9BD
:102CA000002084F83800204600F050F8242084F8F2
:102CB00039002068C06820F400502168C8602046B0
:102CC00000F0F2FD2068006920F49040216808615E
:102CD0002068406920F02A00216848612068C068A7
:102CE00040F400502168C8600020E063202084F890
:102CF000390084F83A0000207EE7000000380140E7
:102D000000440040004800402E2E2F447269766532
:102D100072732F53544D3332463178785F48414CAB
:102D20005F4472697665722F5372632F73746D33CB
:102D300032663178785F68616C5F756172742E639A
:102D400000000000004C00400050004010B586B06C
:102D500004460020029003900490059022492068C8
:102D600088423FD100BF2148806940F480401F491C
:102D700088610846806900F48040019000BF00BF70
:102D800000BF0846806940F00800886108468069F5
:102D900000F00800019000BF00BF40200290022018
:102DA00003900320059002A91148FDF7EBFA80205B
:102DB0000290002003900120049002A90C48FDF726
:102DC000E1FA00BF0B49486840F0E06040F00400C1
:102DD000486000BF002211462520FDF779FF25201D
:102DE000FDF740FF06B010BD003801400010024062
:102DF000000C0140000001407047704700BFFEE733
:102E000000B585B00020019002900390049000BFAF
:102E10005848806940F0100056498861084680692A
:102E200000F01000009000BF00BF00BF084680699E
:102E300040F0200088610846806900F02000009082
:102E400000BF00BF00BF0846806940F004008861F1
:102E50000846806900F00400009000BF00BF00BF7A
:102E60000846806940F0080088610846806900F0E3
:102E70000800009000BF00BF012243F64A413E48CF
:102E8000FDF792FC012248F202013C48FDF78CFC60
:102E9000012241F636413A48FDF786FC43F64A40A6
:102EA00001900120029003900320049001A9324870
:102EB000FDF768FA44F2050001900020029001201D
:102EC000039001A92C48FDF75DFA48F2903001907B
:102ED0000320029001A92848FDF754FA012001902F
:102EE000002002900120039001A92448FDF74AFA2E
:102EF00048F2020001900120029003900320049008
:102F000001A91E48FDF73EFA41F6BC70019003206E
:102F1000029001A91948FDF735FA202001901948BF
:102F200002900120039001A91348FDF72BFA092014
:102F30000190002002900120039001A91048FDF7A4
:102F400021FA41F6364001900120029003900320BF
:102F5000049001A90A48FDF715FA04200190002009
:102F600002900120039001A90748FDF70BFA05B074
:102F700000BD0000001002400010014000080140A8
:102F8000000C0140000021100014014010B50B4856
:102F90000B4908600B484860002109488160C16006
:102FA0004FF480410161002141618161C161016291
:102FB000FDF73CFC08B1FDF710F910BD00540040CE
:102FC00040000020A086010010B50E480E490860A0
:102FD0004FF48270486000210B488160C16001613C
:102FE00041614FF4007181610021C1610162416260
:102FF00081620A21C162FEF701FC08B1FDF7EDF81C
:1030000010BD0000003800409400002000B58DB0D5
:10301000002009900A900B900C90079008901C21BA
:103020006846FDF7BAF820482049086040F267106A
:10303000486000211D4881606421C1600021016158
:103040008161FEF713FF08B1FDF7C7F84FF4805018
:10305000099009A91548FEF7C5FF08B1FDF7BDF8AD
:103060001248FFF77FFC08B1FDF7B7F80020079082
:10307000089007A90D48FEF751FE08B1FDF7ADF81D
:103080006020009000200190029004900022694688
:103090000648FFF711FB08B1FDF79FF80348FFF75B
:1030A000DDFA0DB000BD000000040040EC0000207F
:1030B00010B50B480B4908604FF4165048600021CA
:1030C00008488160C16001610C214161002181617A
:1030D000C161FFF78DFD08B1FDF77FF810BD00005D
:1030E000003801402C01002000BFFEE77047704708
:1030F00008B508490968C9084FF47A72B1FBF2F1C2
:103100004143009100BF00BF00994A1E0092002970
:10311000F9D108BD3C00002001B582B0002001902B
:103120004FF40050012301AA02A90090034800684F
:10313000FEF79EFC9DF804000EBD00002400002058
:10314000F8B504460D4616462B460022802120463F
:10315000009600F009F828B1606D40F0200060652D
:103160000320F8BD0020FCE72DE9F04104460E469F
:1031700017461D46DDF818803EE0681CD8B3FDF701
:103180004FFBA0EB0800A84200D2A5BB2068406816
:1031900020F0E000216848606068B0F5827F0DD1C2
:1031A000A068B0F5004F03D0A068B0F5806F05D1DE
:1031B0002068006820F0400021680860A06AB0F52F
:1031C000005F0DD100BF2068006820F40050216826
:1031D00008602068006840F400502168086000BF63
:1031E000012084F8510000BF002084F8500000BF87
:1031F0000320BDE8F081FFE7206880683040B042DE
:1032000001D1012000E00020B842B6D10020F0E753
:10321000704710B5FDF7B6FC10BD00B58FB0282182
:1032200005A8FCF7BAFF14216846FCF7B6FF012099
:1032300005900004069000200790012009900220CC
:103240000C90C1030D91C1040E9105A8FDF7C4FFB8
:1032500008B1FCF7C2FF0F2000900220019000206F
:1032600002904FF480600390002004900221684691
:10327000FDF7DCFD08B1FCF7B0FF0FB000BD0000AA
:103280001148006840F001000F4908600846406896
:103290000E4908400C494860084600680C4908403F
:1032A000094908600846006820F480200860084644
:1032B000406820F4FE0048604FF41F008860C80397
:1032C0000449086070470000001002400000FFF849
:1032D000FFFFF6FE08ED00E010B50248FFF7F2F838
:1032E00010BD0000EC00002010B50268204B984291
:1032F0000ED0204B98420BD0B0F1804F08D01E4B1F
:10330000984205D01D4B984202D01D4B984203D1E4
:1033100022F070024B681A43154B98420ED0154BA1
:1033200098420BD0B0F1804F08D0134B984205D093
:10333000124B984202D0124B984203D122F44072B1
:10334000CB681A4322F080034C6943EA040202600E
:103350008B68C3620B688362054B984202D0054BB1
:10336000984201D10B6903630123436110BD000042
:10337000002C0140003401400004004000080040DF
:10338000000C004030B50C46816821F47F4142EAD0
:10339000032525432943816030BD0A46816821F019
:1033A000700142F007031943816070472DE9F04135
:1033B00004460D46206A20F001002062266A6768F4
:1033C000D4F8188028F0700828F00308286840EA2C
:1033D000080826F00206A86806432348844200D164
:1033E00003E02248844211D100BFE86810B1E868C8
:1033F000082800D104E041F201711DA000F0E3FBB8
:1034000026F00806E868064326F0040616488442BB
:1034100002D0164884421FD1A869B0F5007F01D0C0
:10342000A86900B904E041F20E7111A000F0CBFBD5
:103430006869B0F5807F01D0686900B904E041F2A5
:103440000F710BA000F0BFFB27F4807727F4007703
:1034500068690743A86907436760C4F8188068680B
:1034600060632662BDE8F081002C01400034014019
:103470002E2E2F447269766572732F53544D33325A
:10348000463178785F48414C5F4472697665722FA7
:103490005372632F73746D3332663178785F68616D
:1034A0006C5F74696D2E63002DE9F04104460D4692
:1034B000206A20F010002062266A6768D4F818801D
:1034C00028F4E04828F44078286848EA002826F0E4
:1034D0002006A86846EA00162448844200D103E08A
:1034E0002348844212D100BFE86810B1E868082878
:1034F00000D104E041F24C711EA000F064FB26F004
:103500008006E86846EA001626F04006174884421E
:1035100002D01748844221D1A869B0F5007F01D0BC
:10352000A86900B904E041F25A7112A000F04BFB07
:103530006869B0F5807F01D0686900B904E041F2A4
:103540005B710CA000F03FFB27F4806727F4006755
:10355000686947EA8007A86947EA80076760C4F896
:1035600018806868A0632662BDE8F081002C0140E5
:10357000003401402E2E2F447269766572732F53EA
:10358000544D3332463178785F48414C5F4472691C
:103590007665722F5372632F73746D333266317890
:1035A000785F68616C5F74696D2E63002DE9F0418E
:1035B00004460D46206A20F480702062266A6768FF
:1035C000D4F81C8028F0700828F00308286840EA26
:1035D000080826F40076A86846EA002624488442B3
:1035E00000D103E02348844212D100BFE86810B143
:1035F000E868082800D104E041F297711EA000F0AD
:10360000E2FA26F40066E86846EA002626F48066B8
:103610001748844202D01748844221D1A869B0F5E6
:10362000007F01D0A86900B904E041F2A47112A0A2
:1036300000F0C9FA6869B0F5807F01D0686900B907
:1036400004E041F2A5710CA000F0BDFA27F4805708
:1036500027F40057686947EA0017A86947EA001786
:103660006760C4F81C806868E0632662BDE8F0818A
:10367000002C0140003401402E2E2F4472697665E3
:1036800072732F53544D3332463178785F48414C32
:103690005F4472697665722F5372632F73746D3352
:1036A00032663178785F68616C5F74696D2E630093
:1036B0002DE9F04104460D46206A20F48050206236
:1036C000276AD4F80480E66926F4E04626F44076BA
:1036D000286846EA002627F40057A86847EA00371A
:1036E0000F48844202D00F48844210D16869B0F577
:1036F000807F01D0686900B904E041F2E3710AA05B
:1037000000F061FA28F48048686948EA8018C4F833
:103710000480E661686820642762BDE8F0810000EB
:10372000002C0140003401402E2E2F447269766532
:1037300072732F53544D3332463178785F48414C81
:103740005F4472697665722F5372632F73746D33A1
:1037500032663178785F68616C5F74696D2E6300E2
:1037600030B50B461446026A056A25F0010505626C
:10377000816921F0F00141EA041122F00A021A43A2
:103780008161026230BD30B50B461446056A25F0F2
:10379000100505628169026A21F4704141EA043131
:1037A00022F0A00242EA03128161026230BD70B5CC
:1037B00005466C6A0020E085E0842046FFF770F93A
:1037C00070BD0168C96821F490710268D160016818
:1037D000496921F0010102685161202180F83A1005
:1037E000704710B504462068C06820F0400021688A
:1037F000C860202084F839002046FFF7FEFA002038
:1038000010BD70B5044694F83A0022284AD1A06849
:10381000B0F5805F13D1A56A206940B9206840687F
:10382000C0F308002880A06A801CA06219E020680C
:103830004068C0B22880A06A401CA06211E02069E4
:1038400038B920684068C1B2A26A501CA0621170E9
:1038500007E02068406800F07F01A26A501CA06267
:103860001170E08D401E80B2E085C8B92068C06844
:1038700020F020002168C8602068C06820F48070B3
:103880002168C8602068406920F001002168486113
:10389000202084F83A002046FFF7AEFA002070BDE1
:1038A0000020FCE70220FAE770B504468049606812
:1038B000884200D804E040F6FD317EA000F083F994
:1038C000E06818B1E068B0F5005F00D104E040F6B0
:1038D000FE3178A000F077F9206938B12069B0F5A1
:1038E000806F03D02069B0F5C06F00D104E040F6CE
:1038F000FF3170A000F067F94FF6F371606908407E
:1039000010B9606900B104E04FF4406169A000F0B3
:103910005AF92068006920F44050E16808432168A2
:1039200008612169A0680843616940EA01062068CE
:10393000C06841F20C61884330432168C860206848
:10394000406920F44070A1690843216848616849D2
:103950002068884255D1FDF7E3FB054605EBC5001D
:1039600000EB051061688900B0FBF1F005EBC501C3
:1039700001EB051162689200B1FBF2F16422B1FB28
:10398000F2F101EBC10202EB0111A0EB8100322147
:1039900001EB00106421B0FBF1F000F0F00005EB4A
:1039A000C50101EB051162689200B1FBF2F16422DE
:1039B000B1FBF2F100EB011105EBC50000EB0510C6
:1039C00062689200B0FBF2F005EBC50202EB051253
:1039D00063689B00B2FBF3F26423B2FBF3F202EBE9
:1039E000C20303EB0212A0EB8200322202EB0010B2
:1039F0006422B0FBF2F000F00F00084421688860F8
:103A000054E0FDF77DFB054605EBC50000EB051016
:103A100061688900B0FBF1F005EBC50101EB051110
:103A200062689200B1FBF2F16422B1FBF2F101EBAA
:103A3000C10202EB0111A0EB8100322101EB001069
:103A40006421B0FBF1F000F0F00005EBC50101EBE3
:103A5000051162689200B1FBF2F16422B1FBF2F150
:103A600000EB011105EBC50000EB05106268920048
:103A7000B0FBF2F005EBC50202EB051263689B0098
:103A8000B2FBF3F26423B2FBF3F202EBC20303EBEB
:103A90000212A0EB8200322202EB00106422B0FB83
:103AA000F2F000F00F0008442168886070BD00004B
:103AB00020AA44002E2E2F447269766572732F530C
:103AC000544D3332463178785F48414C5F447269D7
:103AD0007665722F5372632F73746D33326631784B
:103AE000785F68616C5F756172742E63000000001E
:103AF00000380140014691F8390021282CD188680E
:103B0000B0F5805F0FD10A6A1088C0F308000B6817
:103B10005860086918B9086A801C086209E0086AD8
:103B2000401C086205E00B6A581C086218780B6894
:103B30005860C88C401E80B2C88458B90868C068F4
:103B400020F080000B68D8600868C06840F0400032
:103B50000B68D860002070470220FCE710B50248CF
:103B6000FEF7A0FF10BD00002C01002000BFFEE703
:103B700002480068C0F30220704700000CED00E02E
:103B800010B5002804DB0A07130E054A135406E09B
:103B90000A07140E034A00F00F031B1FD45410BD74
:103BA00000E400E018ED00E002E008C8121F08C1C0
:103BB000002AFAD170477047002001E001C1121FAE
:103BC000002AFBD17047704730B504460B460021F0
:103BD000012A03D11131A3F108000144022A03D1C3
:103BE000891DA3F10800014406E06078257840EAC9
:103BF00005200144A41C9B1E012BF6D813B120788C
:103C000001EB002102E088B200EB1141080C002812
:103C1000F9D14FF6FF7581EA050030BD70B5054654
:103C20000C464D4805604FF480504C490860FF2217
:103C30000021104600F0CEF900204949086000211B
:103C4000082000F0A1F90021092000F09DF90021D1
:103C50000C2000F099F900210D2000F095F9FE21CB
:103C60000A2000F091F919210B2000F08DF9FF21B5
:103C7000042000F089F91921052000F085F9FF21C1
:103C8000062000F081F91F21072000F07DF9B02106
:103C9000382000F079F93F21282000F075F9302113
:103CA000292000F071F9F921302000F06DF9F72199
:103CB000312000F069F90D21C02000F065F90021E4
:103CC000C12000F061F93322C221802000F082F986
:103CD0001221C62000F058F90C21C72000F054F939
:103CE0001221C42000F050F9DC21CA2000F04CF968
:103CF0000521CB2000F048F92178E42000F044F9B8
:103D00006178E52000F040F9A178E22000F03CF96C
:103D1000E178E32000F038F92179E02000F034F96F
:103D20006179E12000F030F94FF48071002000F05B
:103D3000ACF84FF48071102000F0A7F81F2000F0BD
:103D400009F9C0221B21802000F044F904221F2120
:103D5000802000F03FF970BD24000020100C0140CD
:103D60002C0000202DE9F04105460F46392000F0D7
:103D7000A5F810B90020BDE8F0812948017800209D
:103D800000F002F926480088C0F30721012000F066
:103D9000FBF800213A2000F0B9F821490860002121
:103DA0003A2000F0B3F81E49096841EA00201C4996
:103DB000086000213A2000F0A9F8044600213A20CA
:103DC00000F0A4F844EA0024241F00213A2000F067
:103DD0009DF8064600213A2000F098F846EA0026B1
:103DE000681EA04200D26C1E06F0800008B90024B4
:103DF00003E03946204600F06BF8094801780C20B2
:103E000000F0C2F806480088C0F307210D2000F03A
:103E1000BBF840221E21802000F0DCF82046AAE7F3
:103E20002C00002070B504460D46FF21022000F052
:103E3000ABF81921032000F0A7F8FF202044C1B2FD
:103E4000062000F0A1F841F6FF102044C0F307213E
:103E5000072000F099F8002211467A2000F0BAF805
:103E60002946204600F09CF808221F21802000F0FF
:103E7000B1F81C2000F022F800F0020020B1082266
:103E80001F21A02000F0A6F870BD70B505460C46B5
:103E90002946D42000F078F8E1B2D62000F074F87A
:103EA000C4F30721D72000F06FF800BFEA2000F02C
:103EB00005F800F001000028F8D170BD10B50446E7
:103EC000204600F047F82146002000F01FF810BD02
:103ED00070B505460C464FF480500B4908603A20F7
:103EE000FFF71AF905E06D1E0020FFF715F92070A5
:103EF000641C002DF7D1002020704FF4805002493F
:103F0000091F086070BD0000140C014070B5054623
:103F10000C4600264FF480500D49086004F01F0045
:103F200040EA05063046FFF7F7F8FF20FFF7F4F800
:103F3000064604F0800018B1FF20FFF7EDF80646B2
:103F40004FF480500249091F0860304670BD0000E0
:103F5000140C014010B5044604F0600009490978CA
:103F600088420ED003221F21A02000F033F8C4F3B2
:103F700041121F21802000F02DF804F0600001495B
:103F8000087010BD2800002070B504460D4620467C
:103F9000FFF7E0FF2A462146402000F01BF870BDE5
:103FA00070B504460D464FF48050094908607A20E8
:103FB000FFF7B2F804E0641E2878FFF7ADF86D1C37
:103FC000002CF8D14FF480500149091F086070BDE2
:103FD000140C01402DE9F04104460D461646002719
:103FE0004FF480500949086005F01F0040EA0407BB
:103FF0003846FFF791F837463846FFF78DF84FF40B
:1040000080500249091F0860BDE8F081140C01408E
:1040100010B5044604F007017520FFF7B5FF10BD89
:1040200010B502460B460021292B01D2002010BDFD
:10403000107B082802D1507B062801D00020F6E72B
:104040000AE001F12600105C054C645CA04201D03E
:104050000020ECE7481CC1B20429F2DB0120E6E7AE
:104060000700002010B502460B4600212A2B01D282
:10407000002010BD107B082801D1507B08B1002022
:10408000F7E7907B452801D00020F2E70AE001F134
:104090001E00105C054C645CA04201D00020E8E7E3
:1040A000481CC1B20429F2DB0120E2E7070000202E
:1040B00030B5044600202076607640202075002030
:1040C00060758020A0750022142104F10E00FFF716
:1040D0007BFD0546280A2076657630BD30B504465E
:1040E00007E0157801F136002554491C521C581E72
:1040F000C3B2002BF5D1084630BD0000044800686B
:1041000018B104480068223070470020FCE7000026
:104110001C00002018000020027C417C62F31F215B
:104120000B4A1160114609681439116090F82E107D
:1041300009118900074A1160054909681268891A3E
:10414000034A11601146096809B9002111607047DE
:104150001C00002018000020FCF720FDFFF75DF890
:10416000FEF74EFEFEF712FFFEF750FFFEF7A0FF30
:10417000FEF72AFF07490848FFF750FD40F2764155
:104180001420FFF782FE0220FFF742FF01E000F05B
:104190005DF9FCE7010000209400002070B50546A1
:1041A0000024284600F04CF800202875022068758D
:1041B0000BE004F11600295C0A3029540E48015D19
:1041C00004F116002954601CC4B2062CF1DB002453
:1041D0000BE004F11C00295C0A3029540748015DFA
:1041E00004F11C002954601CC4B2042CF1DB2946E4
:1041F0002A20FFF717FE70BD0100002007000020F5
:1042000070B504460D46204600F01AF8204600F02E
:1042100029F8002084F8220094F82400F72804DD0F
:1042200094F82500401C84F8250094F824000830F8
:1042300084F8240021462846FFF7F4FD70BD0000F5
:104240000146002008E0821D8A5C0A54044A135C7F
:10425000821D8B54421CD0B20628F4DB704700004C
:104260000100002030B5054600240BE004F11A00DF
:10427000295C001D29540648015D04F11A002954E7
:10428000601CC4B2042CF1DB2846FFF711FF30BDDF
:104290000700002070B504462046FFF7D1FF10202C
:1042A00084F82F001448006830B901230022194611
:1042B000204600F06FF806E0012300220E48016856
:1042C000204600F067F82825280A207465742046E7
:1042D000FFF7C8FF02221C2104F11A00FFF774FC4B
:1042E0000546280A84F8320084F8335021463620E7
:1042F000FFF798FD70BD00001C00002070B504465B
:104300000D46182084F82F0005F12806300A207485
:1043100066742046FFF7CCFE002084F8320084F853
:10432000330005F11C01022204F11A00FFF74CFCD6
:104330000646300A84F8320084F8336005F136000E
:104340002146FFF76FFD70BD70B504462046FFF7AC
:1043500077FF002020742C2060742046FFF782FF36
:10436000122084F82F00002301221146204600F07D
:1043700011F80222202104F11A00FFF725FC05465E
:10438000280A84F8320084F8335021463A20FFF797
:1043900049FD70BDF8B50C4629A636680096002187
:1043A00009E001F12206875DB61C87550027B61E7D
:1043B00087554E1CF1B20229F3DB224E367880F885
:1043C0002360042112E001F12506865D344401F1E9
:1043D0002906855D845513B1361F855503E00027F6
:1043E00001F125068755240A4E1EF1B20029EADCA8
:1043F00073B9002600F8266F4670134E3678867023
:104400000026C6702638104E3678B61C0E4F3E7009
:10441000002680F8326080F8336062B102262E30C8
:10442000067204264672052686728026C6726026AB
:1044300000F82E6902E0502680F82E60F8BD0000DA
:1044400000640000000000202000002000B587B0BC
:10445000454940F2DC50FFF785FC444908600846B6
:10446000006808B907B000BD404801683E48FFF742
:10447000D7FD18B13C48FFF791FEF3E73B480168D0
:104480003948FFF7EFFD00B9ECE73748C07D012858
:104490000AD1354890F82200082805D13348016830
:1044A0003148FFF7ADFEDDE72F48C07D062858D123
:1044B0002D4890F82400002853D12B4890F825006F
:1044C00064284ED1284890F82F0000F00200B8B1BF
:1044D0002548FFF739FF0CE0234825490968405C6F
:1044E0002449234A1268885421480068401C204906
:1044F00008601F48006840F2DC518842ECDBB1E7FD
:10450000194890F82F0000F0100048B31648FFF744
:1045100003FEFFF7F3FD184908600846006848B934
:10452000114890F82F0000F0010010B10E48FFF77D
:10453000B1FE97E71C2211A16846FBF715FE19236F
:104540006A4600210848FFF7C9FD08490860064887
:10455000FFF7A0FE054801680348FFF7CFFE81E79B
:1045600000BF00BF7EE700006C0100200C000020AF
:10457000140000204907002010000020010314004F
:104580000A00000000000000000000000000000021
:1045900000000038BE000000000000000000000025
:1045A00001020304060708090000000001020304D9
:1045B000D04500080000002040000000A83B000893
:1045C0001046000840000020E8130000B83B000837
:1045D00064545352515000C0A80121000000000053
:1045E00000000000000000000000000000000000CB
:1045F0000A000000000000000000000000000000B1
:104600000000000010000000010000000024F40081
:0400000508000131BD
:00000001FF
